{
  "address": "0x5fd5B120CbA1DB17b23f5220f7297d58F69AD01c",
  "abi": [
    {
      "inputs": [],
      "name": "VERSION",
      "outputs": [
        {
          "internalType": "uint256",
          "name": "",
          "type": "uint256"
        }
      ],
      "stateMutability": "view",
      "type": "function"
    },
    {
      "inputs": [
        {
          "internalType": "uint256",
          "name": "_initValue",
          "type": "uint256"
        }
      ],
      "name": "initialize",
      "outputs": [],
      "stateMutability": "nonpayable",
      "type": "function"
    },
    {
      "inputs": [],
      "name": "initialized",
      "outputs": [
        {
          "internalType": "bool",
          "name": "",
          "type": "bool"
        }
      ],
      "stateMutability": "view",
      "type": "function"
    },
    {
      "inputs": [
        {
          "internalType": "uint256",
          "name": "_newValue",
          "type": "uint256"
        }
      ],
      "name": "setValue",
      "outputs": [],
      "stateMutability": "nonpayable",
      "type": "function"
    },
    {
      "inputs": [],
      "name": "upgrade",
      "outputs": [
        {
          "internalType": "uint256",
          "name": "",
          "type": "uint256"
        }
      ],
      "stateMutability": "view",
      "type": "function"
    },
    {
      "inputs": [],
      "name": "value",
      "outputs": [
        {
          "internalType": "uint256",
          "name": "",
          "type": "uint256"
        }
      ],
      "stateMutability": "view",
      "type": "function"
    }
  ],
  "transactionHash": "0x42a3de2b0b13036ee35eb940fe07abbd5f602e2ce097472a19609f3ff40eafa7",
  "args": [],
  "numDeployments": 2,
  "solcInputHash": "deaf1985272863a84315c927ebcede72",
  "bytecode": "0x608060405263deadbeaf60025534801561001857600080fd5b506101c2806100286000396000f3fe608060405234801561001057600080fd5b50600436106100625760003560e01c8063158ef93e146100675780633fa4f2451461008957806355241077146100a0578063d55ec697146100b5578063fe4b84df146100be578063ffa1ad74146100d1575b600080fd5b6000546100749060ff1681565b60405190151581526020015b60405180910390f35b61009260015481565b604051908152602001610080565b6100b36100ae36600461014c565b6100d9565b005b61009260025481565b6100b36100cc36600461014c565b6100ea565b610092600381565b6100e481600a610165565b60015550565b60005460ff16156101385760405162461bcd60e51b81526020600482015260146024820152734f6e6c7920696e697469616c697a65206f6e636560601b604482015260640160405180910390fd5b60019081556000805460ff19169091179055565b60006020828403121561015e57600080fd5b5035919050565b8082018082111561018657634e487b7160e01b600052601160045260246000fd5b9291505056fea264697066735822122069a90da627f9b2fad0a1a0b7477fdbd1fc32c284aaad6e51a879eebd60bdd27464736f6c63430008130033",
  "devdoc": {
    "kind": "dev",
    "methods": {},
    "version": 1
  },
  "userdoc": {
    "kind": "user",
    "methods": {},
    "version": 1
  },
  "storageLayout": {
    "storage": [
      {
        "astId": 6,
        "contract": "contracts/StandardProxy/StandardImpl.sol:StandardImpl",
        "label": "initialized",
        "offset": 0,
        "slot": "0",
        "type": "t_bool"
      },
      {
        "astId": 8,
        "contract": "contracts/StandardProxy/StandardImpl.sol:StandardImpl",
        "label": "value",
        "offset": 0,
        "slot": "1",
        "type": "t_uint256"
      },
      {
        "astId": 11,
        "contract": "contracts/StandardProxy/StandardImpl.sol:StandardImpl",
        "label": "upgrade",
        "offset": 0,
        "slot": "2",
        "type": "t_uint256"
      }
    ],
    "types": {
      "t_bool": {
        "encoding": "inplace",
        "label": "bool",
        "numberOfBytes": "1"
      },
      "t_uint256": {
        "encoding": "inplace",
        "label": "uint256",
        "numberOfBytes": "32"
      }
    }
  }
}